{
  "contractName": "Marketplace",
  "abi": [
    {
      "inputs": [],
      "stateMutability": "nonpayable",
      "type": "constructor"
    },
    {
      "anonymous": false,
      "inputs": [
        {
          "indexed": true,
          "internalType": "uint256",
          "name": "itemId",
          "type": "uint256"
        },
        {
          "indexed": true,
          "internalType": "address",
          "name": "nftContract",
          "type": "address"
        },
        {
          "indexed": true,
          "internalType": "uint256",
          "name": "tokenId",
          "type": "uint256"
        },
        {
          "indexed": false,
          "internalType": "address",
          "name": "seller",
          "type": "address"
        },
        {
          "indexed": false,
          "internalType": "uint256",
          "name": "royalty",
          "type": "uint256"
        },
        {
          "indexed": false,
          "internalType": "uint256",
          "name": "price",
          "type": "uint256"
        },
        {
          "indexed": false,
          "internalType": "bool",
          "name": "sold",
          "type": "bool"
        }
      ],
      "name": "marketItemCreated",
      "type": "event"
    },
    {
      "anonymous": false,
      "inputs": [
        {
          "indexed": false,
          "internalType": "uint256",
          "name": "id",
          "type": "uint256"
        },
        {
          "indexed": false,
          "internalType": "uint256",
          "name": "tokenId",
          "type": "uint256"
        },
        {
          "indexed": false,
          "internalType": "address",
          "name": "buyer",
          "type": "address"
        },
        {
          "indexed": false,
          "internalType": "address",
          "name": "owner",
          "type": "address"
        },
        {
          "indexed": false,
          "internalType": "address",
          "name": "seller",
          "type": "address"
        },
        {
          "indexed": false,
          "internalType": "uint256",
          "name": "price",
          "type": "uint256"
        },
        {
          "indexed": false,
          "internalType": "uint256",
          "name": "royalty",
          "type": "uint256"
        }
      ],
      "name": "marketItemSold",
      "type": "event"
    },
    {
      "inputs": [
        {
          "internalType": "uint256",
          "name": "",
          "type": "uint256"
        }
      ],
      "name": "itemIds",
      "outputs": [
        {
          "internalType": "uint256",
          "name": "",
          "type": "uint256"
        }
      ],
      "stateMutability": "view",
      "type": "function"
    },
    {
      "inputs": [
        {
          "internalType": "uint256",
          "name": "",
          "type": "uint256"
        }
      ],
      "name": "itemOwner",
      "outputs": [
        {
          "internalType": "address",
          "name": "",
          "type": "address"
        }
      ],
      "stateMutability": "view",
      "type": "function"
    },
    {
      "inputs": [
        {
          "internalType": "uint256",
          "name": "",
          "type": "uint256"
        }
      ],
      "name": "items",
      "outputs": [
        {
          "internalType": "uint256",
          "name": "id",
          "type": "uint256"
        },
        {
          "internalType": "address",
          "name": "tokenAddress",
          "type": "address"
        },
        {
          "internalType": "uint256",
          "name": "tokenId",
          "type": "uint256"
        },
        {
          "internalType": "address payable",
          "name": "seller",
          "type": "address"
        },
        {
          "internalType": "uint256",
          "name": "royalty",
          "type": "uint256"
        },
        {
          "internalType": "uint256",
          "name": "price",
          "type": "uint256"
        },
        {
          "internalType": "bool",
          "name": "sold",
          "type": "bool"
        }
      ],
      "stateMutability": "view",
      "type": "function"
    },
    {
      "inputs": [
        {
          "internalType": "uint256",
          "name": "tokenId",
          "type": "uint256"
        },
        {
          "internalType": "address",
          "name": "tokenAddress",
          "type": "address"
        },
        {
          "internalType": "uint256",
          "name": "price",
          "type": "uint256"
        },
        {
          "internalType": "uint256",
          "name": "royalty",
          "type": "uint256"
        }
      ],
      "name": "addMarketItem",
      "outputs": [
        {
          "internalType": "uint256",
          "name": "",
          "type": "uint256"
        }
      ],
      "stateMutability": "nonpayable",
      "type": "function"
    },
    {
      "inputs": [
        {
          "internalType": "uint256",
          "name": "id",
          "type": "uint256"
        }
      ],
      "name": "sellMarketItem",
      "outputs": [],
      "stateMutability": "payable",
      "type": "function"
    }
  ],
  "bytecode": "0x608060405234801561001057600080fd5b506001600081905550611834806100286000396000f3fe60806040526004361061004a5760003560e01c806391ddfe0a1461004f5780639548573b1461006b578063b3dc00fe146100a8578063bfb231d2146100e5578063f931546e14610128575b600080fd5b6100696004803603810190610064919061106d565b610165565b005b34801561007757600080fd5b50610092600480360381019061008d919061106d565b610a9e565b60405161009f91906110db565b60405180910390f35b3480156100b457600080fd5b506100cf60048036038101906100ca919061106d565b610ad1565b6040516100dc9190611105565b60405180910390f35b3480156100f157600080fd5b5061010c6004803603810190610107919061106d565b610ae9565b60405161011f979695949392919061115c565b60405180910390f35b34801561013457600080fd5b5061014f600480360381019061014a91906111f7565b610b88565b60405161015c9190611105565b60405180910390f35b600260005414156101ab576040517f08c379a00000000000000000000000000000000000000000000000000000000081526004016101a2906112bb565b60405180910390fd5b600260008190555080600480549050811080156101ec575080600482815481106101d8576101d76112db565b5b906000526020600020906007020160000154145b61022b576040517f08c379a000000000000000000000000000000000000000000000000000000000815260040161022290611356565b60405180910390fd5b816000151560048281548110610244576102436112db565b5b906000526020600020906007020160060160009054906101000a900460ff161515146102a5576040517f08c379a000000000000000000000000000000000000000000000000000000000815260040161029c906113c2565b60405180910390fd5b600483815481106102b9576102b86112db565b5b906000526020600020906007020160010160009054906101000a900473ffffffffffffffffffffffffffffffffffffffff16600484815481106102ff576102fe6112db565b5b90600052602060002090600702016002015460008290503073ffffffffffffffffffffffffffffffffffffffff168173ffffffffffffffffffffffffffffffffffffffff1663081812fc846040518263ffffffff1660e01b81526004016103669190611105565b60206040518083038186803b15801561037e57600080fd5b505afa158015610392573d6000803e3d6000fd5b505050506040513d601f19601f820116820180604052508101906103b691906113f7565b73ffffffffffffffffffffffffffffffffffffffff16146103d657600080fd5b600486815481106103ea576103e96112db565b5b90600052602060002090600702016005015434101561043e576040517f08c379a000000000000000000000000000000000000000000000000000000000815260040161043590611470565b60405180910390fd5b60048681548110610452576104516112db565b5b906000526020600020906007020160030160009054906101000a900473ffffffffffffffffffffffffffffffffffffffff1673ffffffffffffffffffffffffffffffffffffffff163373ffffffffffffffffffffffffffffffffffffffff1614156104f2576040517f08c379a00000000000000000000000000000000000000000000000000000000081526004016104e9906114dc565b60405180910390fd5b600060646004888154811061050a576105096112db565b5b906000526020600020906007020160050154600489815481106105305761052f6112db565b5b90600052602060002090600702016004015461054c919061152b565b61055691906115b4565b90506000816004898154811061056f5761056e6112db565b5b90600052602060002090600702016005015461058b91906115e5565b90506000600489815481106105a3576105a26112db565b5b906000526020600020906007020160010160009054906101000a900473ffffffffffffffffffffffffffffffffffffffff16905060008173ffffffffffffffffffffffffffffffffffffffff16636352211e60048c81548110610609576106086112db565b5b9060005260206000209060070201600201546040518263ffffffff1660e01b81526004016106379190611105565b60206040518083038186803b15801561064f57600080fd5b505afa158015610663573d6000803e3d6000fd5b505050506040513d601f19601f8201168201806040525081019061068791906113f7565b9050600160048b8154811061069f5761069e6112db565b5b906000526020600020906007020160060160006101000a81548160ff02191690831515021790555060006005600060048d815481106106e1576106e06112db565b5b906000526020600020906007020160010160009054906101000a900473ffffffffffffffffffffffffffffffffffffffff1673ffffffffffffffffffffffffffffffffffffffff1673ffffffffffffffffffffffffffffffffffffffff168152602001908152602001600020600060048d81548110610763576107626112db565b5b906000526020600020906007020160020154815260200190815260200160002060006101000a81548160ff02191690831515021790555060048a815481106107ae576107ad6112db565b5b906000526020600020906007020160010160009054906101000a900473ffffffffffffffffffffffffffffffffffffffff1673ffffffffffffffffffffffffffffffffffffffff166342842e0e60048c8154811061080f5761080e6112db565b5b906000526020600020906007020160030160009054906101000a900473ffffffffffffffffffffffffffffffffffffffff163360048e81548110610856576108556112db565b5b9060005260206000209060070201600201546040518463ffffffff1660e01b815260040161088693929190611678565b600060405180830381600087803b1580156108a057600080fd5b505af11580156108b4573d6000803e3d6000fd5b5050505060048a815481106108cc576108cb6112db565b5b906000526020600020906007020160030160009054906101000a900473ffffffffffffffffffffffffffffffffffffffff1673ffffffffffffffffffffffffffffffffffffffff166108fc849081150290604051600060405180830381858888f19350505050158015610943573d6000803e3d6000fd5b508073ffffffffffffffffffffffffffffffffffffffff166108fc859081150290604051600060405180830381858888f1935050505015801561098a573d6000803e3d6000fd5b5080600660008c815260200190815260200160002060006101000a81548173ffffffffffffffffffffffffffffffffffffffff021916908373ffffffffffffffffffffffffffffffffffffffff1602179055507fa780730e8fd0b62449d4d31fe4b8338037052cc41fbfc31884caf2b4999cec8e8a60048c81548110610a1357610a126112db565b5b906000526020600020906007020160020154338460048f81548110610a3b57610a3a6112db565b5b906000526020600020906007020160030160009054906101000a900473ffffffffffffffffffffffffffffffffffffffff16888a604051610a8297969594939291906116af565b60405180910390a1505050505050505050600160008190555050565b60066020528060005260406000206000915054906101000a900473ffffffffffffffffffffffffffffffffffffffff1681565b60036020528060005260406000206000915090505481565b60048181548110610af957600080fd5b90600052602060002090600702016000915090508060000154908060010160009054906101000a900473ffffffffffffffffffffffffffffffffffffffff16908060020154908060030160009054906101000a900473ffffffffffffffffffffffffffffffffffffffff16908060040154908060050154908060060160009054906101000a900460ff16905087565b6000838560008290503373ffffffffffffffffffffffffffffffffffffffff168173ffffffffffffffffffffffffffffffffffffffff16636352211e846040518263ffffffff1660e01b8152600401610be19190611105565b60206040518083038186803b158015610bf957600080fd5b505afa158015610c0d573d6000803e3d6000fd5b505050506040513d601f19601f82011682018060405250810190610c3191906113f7565b73ffffffffffffffffffffffffffffffffffffffff1614610c5157600080fd5b868860008290503073ffffffffffffffffffffffffffffffffffffffff168173ffffffffffffffffffffffffffffffffffffffff1663081812fc846040518263ffffffff1660e01b8152600401610ca89190611105565b60206040518083038186803b158015610cc057600080fd5b505afa158015610cd4573d6000803e3d6000fd5b505050506040513d601f19601f82011682018060405250810190610cf891906113f7565b73ffffffffffffffffffffffffffffffffffffffff1614610d1857600080fd5b60001515600560008c73ffffffffffffffffffffffffffffffffffffffff1673ffffffffffffffffffffffffffffffffffffffff16815260200190815260200160002060008d815260200190815260200160002060009054906101000a900460ff16151514610dbc576040517f08c379a0000000000000000000000000000000000000000000000000000000008152600401610db39061176a565b60405180910390fd5b6000600480549050905060046040518060e001604052808381526020018d73ffffffffffffffffffffffffffffffffffffffff1681526020018e81526020013373ffffffffffffffffffffffffffffffffffffffff1681526020018b81526020018c81526020016000151581525090806001815401808255809150506001900390600052602060002090600702016000909190919091506000820151816000015560208201518160010160006101000a81548173ffffffffffffffffffffffffffffffffffffffff021916908373ffffffffffffffffffffffffffffffffffffffff1602179055506040820151816002015560608201518160030160006101000a81548173ffffffffffffffffffffffffffffffffffffffff021916908373ffffffffffffffffffffffffffffffffffffffff1602179055506080820151816004015560a0820151816005015560c08201518160060160006101000a81548160ff02191690831515021790555050506001600560008d73ffffffffffffffffffffffffffffffffffffffff1673ffffffffffffffffffffffffffffffffffffffff16815260200190815260200160002060008e815260200190815260200160002060006101000a81548160ff0219169083151502179055508060048281548110610fa957610fa86112db565b5b90600052602060002090600702016000015414610fc957610fc861178a565b5b8b8b73ffffffffffffffffffffffffffffffffffffffff16827f584c7a3efff588c15f1c4e892e46e55076fd6696f0daa2a4f0e22f12a4eb0424338d8f600060405161101894939291906117b9565b60405180910390a480975050505050505050949350505050565b600080fd5b6000819050919050565b61104a81611037565b811461105557600080fd5b50565b60008135905061106781611041565b92915050565b60006020828403121561108357611082611032565b5b600061109184828501611058565b91505092915050565b600073ffffffffffffffffffffffffffffffffffffffff82169050919050565b60006110c58261109a565b9050919050565b6110d5816110ba565b82525050565b60006020820190506110f060008301846110cc565b92915050565b6110ff81611037565b82525050565b600060208201905061111a60008301846110f6565b92915050565b600061112b8261109a565b9050919050565b61113b81611120565b82525050565b60008115159050919050565b61115681611141565b82525050565b600060e082019050611171600083018a6110f6565b61117e60208301896110cc565b61118b60408301886110f6565b6111986060830187611132565b6111a560808301866110f6565b6111b260a08301856110f6565b6111bf60c083018461114d565b98975050505050505050565b6111d4816110ba565b81146111df57600080fd5b50565b6000813590506111f1816111cb565b92915050565b6000806000806080858703121561121157611210611032565b5b600061121f87828801611058565b9450506020611230878288016111e2565b935050604061124187828801611058565b925050606061125287828801611058565b91505092959194509250565b600082825260208201905092915050565b7f5265656e7472616e637947756172643a207265656e7472616e742063616c6c00600082015250565b60006112a5601f8361125e565b91506112b08261126f565b602082019050919050565b600060208201905081810360008301526112d481611298565b9050919050565b7f4e487b7100000000000000000000000000000000000000000000000000000000600052603260045260246000fd5b7f436f756c64206e6f742066696e64204974656d00000000000000000000000000600082015250565b600061134060138361125e565b915061134b8261130a565b602082019050919050565b6000602082019050818103600083015261136f81611333565b9050919050565b7f4974656d20697320616c726561647920736f6c64000000000000000000000000600082015250565b60006113ac60148361125e565b91506113b782611376565b602082019050919050565b600060208201905081810360008301526113db8161139f565b9050919050565b6000815190506113f1816111cb565b92915050565b60006020828403121561140d5761140c611032565b5b600061141b848285016113e2565b91505092915050565b7f4e6f7420656e6f7567682046756e64732073656e740000000000000000000000600082015250565b600061145a60158361125e565b915061146582611424565b602082019050919050565b600060208201905081810360008301526114898161144d565b9050919050565b7f73656c6c65722073686f756c64206e6f74206265207468652062757965720000600082015250565b60006114c6601e8361125e565b91506114d182611490565b602082019050919050565b600060208201905081810360008301526114f5816114b9565b9050919050565b7f4e487b7100000000000000000000000000000000000000000000000000000000600052601160045260246000fd5b600061153682611037565b915061154183611037565b9250817fffffffffffffffffffffffffffffffffffffffffffffffffffffffffffffffff048311821515161561157a576115796114fc565b5b828202905092915050565b7f4e487b7100000000000000000000000000000000000000000000000000000000600052601260045260246000fd5b60006115bf82611037565b91506115ca83611037565b9250826115da576115d9611585565b5b828204905092915050565b60006115f082611037565b91506115fb83611037565b92508282101561160e5761160d6114fc565b5b828203905092915050565b6000819050919050565b600061163e6116396116348461109a565b611619565b61109a565b9050919050565b600061165082611623565b9050919050565b600061166282611645565b9050919050565b61167281611657565b82525050565b600060608201905061168d6000830186611669565b61169a60208301856110cc565b6116a760408301846110f6565b949350505050565b600060e0820190506116c4600083018a6110f6565b6116d160208301896110f6565b6116de60408301886110cc565b6116eb60608301876110cc565b6116f86080830186611669565b61170560a08301856110f6565b61171260c08301846110f6565b98975050505050505050565b7f4974656d20697320616c726561647920757020666f722073616c650000000000600082015250565b6000611754601b8361125e565b915061175f8261171e565b602082019050919050565b6000602082019050818103600083015261178381611747565b9050919050565b7f4e487b7100000000000000000000000000000000000000000000000000000000600052600160045260246000fd5b60006080820190506117ce60008301876110cc565b6117db60208301866110f6565b6117e860408301856110f6565b6117f5606083018461114d565b9594505050505056fea264697066735822122024f38d60b095a5b97634e9208c84a1317c307ed04eb044321206b99cd815b5cc64736f6c63430008090033",
  "immutableReferences": {},
  "source": "//Contract based on https://docs.openzeppelin.com/contracts/3.x/erc721\r\n// SPDX-License-Identifier: MIT\r\npragma solidity ^0.8.4;\r\n\r\nimport \"../node_modules/@openzeppelin/contracts/token/ERC721/IERC721.sol\";\r\nimport \"../node_modules/@openzeppelin/contracts/utils/Counters.sol\";\r\nimport \"../node_modules/@openzeppelin/contracts/security/ReentrancyGuard.sol\";\r\n\r\ncontract Marketplace is ReentrancyGuard {\r\n    using Counters for Counters.Counter;\r\n    Counters.Counter private _itemIds;\r\n    Counters.Counter private _itemsSold;\r\n\r\n    // address payable owner;\r\n    // uint256 listingPrice = 0.05 ether;\r\n\r\n    constructor() {\r\n        // owner = payable(msg.sender);\r\n    }\r\n    mapping(uint256 => uint256) public itemIds;\r\n    \r\n    struct MarketItem{\r\n        uint256 id;\r\n        address tokenAddress;\r\n        uint256 tokenId;\r\n        address payable seller;\r\n        uint256 royalty;\r\n        uint256 price;\r\n        bool sold;\r\n    }\r\n    \r\n    MarketItem[] public items;\r\n\r\n    mapping(address => mapping(uint => bool)) activeItems;\r\n\r\n    event marketItemCreated (\r\n        uint indexed itemId,\r\n        address indexed nftContract,\r\n        uint256 indexed tokenId,\r\n        address seller,\r\n        uint256 royalty,\r\n        uint256 price,\r\n        bool sold\r\n    );\r\n    \r\n    event marketItemSold(uint256 id,uint256 tokenId, address buyer, address owner,address seller, uint256 price, uint256 royalty);\r\n\r\n    modifier OnlyItemOwner(address tokenAddress, uint256 tokenId){\r\n        IERC721 tokenContract = IERC721(tokenAddress);\r\n        require(tokenContract.ownerOf(tokenId) == msg.sender);\r\n        _;\r\n    }\r\n\r\n    modifier HasTransferApproval(address tokenAddress, uint256 tokenId){\r\n        IERC721 tokenContract = IERC721(tokenAddress);\r\n        require(tokenContract.getApproved(tokenId) == address(this));\r\n        _;\r\n    }\r\n\r\n    modifier ItemExists(uint256 id){\r\n        require(id < items.length && items[id].id == id, \"Could not find Item\");\r\n        _;\r\n    }\r\n\r\n    modifier IsForSale(uint256 id){\r\n        require(items[id].sold == false, \"Item is already sold\");\r\n        _;\r\n    }\r\n    \r\n    mapping(uint256 => address) public itemOwner;\r\n    \r\n    function addMarketItem(uint256 tokenId, address tokenAddress, uint256 price, uint256 royalty) OnlyItemOwner(tokenAddress, tokenId) HasTransferApproval(tokenAddress, tokenId)  external returns (uint256){\r\n        require(activeItems[tokenAddress][tokenId] == false, \"Item is already up for sale\");\r\n       \r\n        // IERC721 tokenContract = IERC721(tokenAddress);\r\n        // address owner = tokenContract.ownerOf(tokenId);\r\n        \r\n        uint256 newItemId = items.length;\r\n        \r\n        \r\n        items.push(MarketItem(newItemId, tokenAddress, tokenId, payable(msg.sender), royalty, price, false));\r\n        activeItems[tokenAddress][tokenId] = true;\r\n\r\n        assert(items[newItemId].id == newItemId);\r\n        emit marketItemCreated(newItemId, tokenAddress, tokenId ,msg.sender, royalty,  price, false);\r\n        return newItemId;\r\n    }\r\n    \r\n   \r\n    \r\n    function sellMarketItem(uint256 id) payable external nonReentrant ItemExists(id) IsForSale(id) HasTransferApproval(items[id].tokenAddress, items[id].tokenId){\r\n        require(msg.value >= items[id].price, \"Not enough Funds sent\");\r\n        require(msg.sender != items[id].seller, \"seller should not be the buyer\");\r\n        \r\n        \r\n        uint royalty = (items[id].royalty * items[id].price)/100;\r\n        uint price = items[id].price - royalty;\r\n        \r\n        // itemOwner[id] = items[id].seller;\r\n        IERC721 tokenContract = IERC721(items[id].tokenAddress);\r\n        address owner = tokenContract.ownerOf(items[id].tokenId);\r\n        \r\n        items[id].sold = true;\r\n        activeItems[items[id].tokenAddress][items[id].tokenId] = false;\r\n        IERC721(items[id].tokenAddress).safeTransferFrom(items[id].seller, msg.sender, items[id].tokenId);\r\n        items[id].seller.transfer(price);\r\n        \r\n        // items[id].seller = payable(msg.sender);\r\n        payable(owner).transfer(royalty);\r\n        itemOwner[id] = owner;\r\n        emit marketItemSold(id, items[id].tokenId, msg.sender, owner, items[id].seller , price, royalty);\r\n    }\r\n\r\n}",
  "sourcePath": "C:/Users/J.C/Documents/contracts/contracts/Marketplace.sol",
  "compiler": {
    "name": "solc",
    "version": "0.8.9+commit.e5eed63a.Emscripten.clang"
  },
  "schemaVersion": "3.4.1",
  "updatedAt": "2021-10-25T17:42:05.477Z",
  "devdoc": {
    "kind": "dev",
    "methods": {},
    "version": 1
  },
  "userdoc": {
    "kind": "user",
    "methods": {},
    "version": 1
  }
}