{
  "contractName": "MyAuction",
  "abi": [
    {
      "anonymous": false,
      "inputs": [
        {
          "indexed": false,
          "internalType": "uint256",
          "name": "id",
          "type": "uint256"
        },
        {
          "indexed": false,
          "internalType": "uint256",
          "name": "tokenId",
          "type": "uint256"
        },
        {
          "indexed": false,
          "internalType": "address",
          "name": "tokenAddress",
          "type": "address"
        },
        {
          "indexed": false,
          "internalType": "uint256",
          "name": "price",
          "type": "uint256"
        },
        {
          "indexed": false,
          "internalType": "uint256",
          "name": "endTime",
          "type": "uint256"
        }
      ],
      "name": "AuctionCreated",
      "type": "event"
    },
    {
      "anonymous": false,
      "inputs": [
        {
          "indexed": false,
          "internalType": "uint256",
          "name": "id",
          "type": "uint256"
        },
        {
          "indexed": false,
          "internalType": "address",
          "name": "winner",
          "type": "address"
        },
        {
          "indexed": false,
          "internalType": "uint256",
          "name": "amount",
          "type": "uint256"
        }
      ],
      "name": "AuctionEnded",
      "type": "event"
    },
    {
      "anonymous": false,
      "inputs": [
        {
          "indexed": false,
          "internalType": "uint256",
          "name": "id",
          "type": "uint256"
        },
        {
          "indexed": false,
          "internalType": "address",
          "name": "bidder",
          "type": "address"
        },
        {
          "indexed": false,
          "internalType": "uint256",
          "name": "amount",
          "type": "uint256"
        }
      ],
      "name": "HighestBidIncreased",
      "type": "event"
    },
    {
      "inputs": [
        {
          "internalType": "uint256",
          "name": "",
          "type": "uint256"
        }
      ],
      "name": "auctions",
      "outputs": [
        {
          "internalType": "uint256",
          "name": "id",
          "type": "uint256"
        },
        {
          "internalType": "uint256",
          "name": "tokenId",
          "type": "uint256"
        },
        {
          "internalType": "uint256",
          "name": "startPrice",
          "type": "uint256"
        },
        {
          "internalType": "address",
          "name": "tokenAddress",
          "type": "address"
        },
        {
          "internalType": "address payable",
          "name": "owner",
          "type": "address"
        },
        {
          "internalType": "uint256",
          "name": "expirationTime",
          "type": "uint256"
        },
        {
          "internalType": "bool",
          "name": "ended",
          "type": "bool"
        }
      ],
      "stateMutability": "view",
      "type": "function"
    },
    {
      "inputs": [
        {
          "internalType": "uint256",
          "name": "",
          "type": "uint256"
        }
      ],
      "name": "highestBid",
      "outputs": [
        {
          "internalType": "uint256",
          "name": "",
          "type": "uint256"
        }
      ],
      "stateMutability": "view",
      "type": "function"
    },
    {
      "inputs": [
        {
          "internalType": "uint256",
          "name": "",
          "type": "uint256"
        }
      ],
      "name": "highestBidder",
      "outputs": [
        {
          "internalType": "address",
          "name": "",
          "type": "address"
        }
      ],
      "stateMutability": "view",
      "type": "function"
    },
    {
      "inputs": [
        {
          "internalType": "uint256",
          "name": "id",
          "type": "uint256"
        },
        {
          "internalType": "uint256",
          "name": "price",
          "type": "uint256"
        }
      ],
      "name": "placeBid",
      "outputs": [],
      "stateMutability": "payable",
      "type": "function"
    },
    {
      "inputs": [
        {
          "internalType": "uint256",
          "name": "tokenId",
          "type": "uint256"
        },
        {
          "internalType": "address",
          "name": "tokenAddress",
          "type": "address"
        },
        {
          "internalType": "uint256",
          "name": "price",
          "type": "uint256"
        },
        {
          "internalType": "uint256",
          "name": "time",
          "type": "uint256"
        }
      ],
      "name": "AuctionAdded",
      "outputs": [
        {
          "internalType": "uint256",
          "name": "",
          "type": "uint256"
        }
      ],
      "stateMutability": "nonpayable",
      "type": "function"
    },
    {
      "inputs": [
        {
          "internalType": "uint256",
          "name": "id",
          "type": "uint256"
        },
        {
          "internalType": "address payable",
          "name": "recipient",
          "type": "address"
        }
      ],
      "name": "withdraw",
      "outputs": [
        {
          "internalType": "bool",
          "name": "",
          "type": "bool"
        }
      ],
      "stateMutability": "nonpayable",
      "type": "function"
    },
    {
      "inputs": [
        {
          "internalType": "uint256",
          "name": "id",
          "type": "uint256"
        }
      ],
      "name": "auctionEnd",
      "outputs": [],
      "stateMutability": "nonpayable",
      "type": "function"
    }
  ],
  "bytecode": "0x608060405234801561001057600080fd5b50611a0d806100206000396000f3fe60806040526004361061006f5760003560e01c8063571a26a01161004e578063571a26a01461011757806357c90de51461015a578063b14c63c514610176578063e73e030f146101b35761006f565b8062f714ce1461007457806332246e9f146100b1578063451df52e146100da575b600080fd5b34801561008057600080fd5b5061009b6004803603810190610096919061120d565b6101f0565b6040516100a89190611268565b60405180910390f35b3480156100bd57600080fd5b506100d860048036038101906100d39190611283565b61034a565b005b3480156100e657600080fd5b5061010160048036038101906100fc9190611283565b610884565b60405161010e91906112d1565b60405180910390f35b34801561012357600080fd5b5061013e60048036038101906101399190611283565b6108b7565b604051610151979695949392919061130a565b60405180910390f35b610174600480360381019061016f9190611379565b610956565b005b34801561018257600080fd5b5061019d60048036038101906101989190611283565b610dcd565b6040516101aa91906113b9565b60405180910390f35b3480156101bf57600080fd5b506101da60048036038101906101d59190611400565b610de5565b6040516101e791906113b9565b60405180910390f35b6000806001600085815260200190815260200160002060008473ffffffffffffffffffffffffffffffffffffffff1673ffffffffffffffffffffffffffffffffffffffff168152602001908152602001600020549050600081111561033e5760006001600086815260200190815260200160002060008573ffffffffffffffffffffffffffffffffffffffff1673ffffffffffffffffffffffffffffffffffffffff168152602001908152602001600020819055508273ffffffffffffffffffffffffffffffffffffffff166108fc829081150290604051600060405180830381858888f1935050505061033d57806001600086815260200190815260200160002060003373ffffffffffffffffffffffffffffffffffffffff1673ffffffffffffffffffffffffffffffffffffffff168152602001908152602001600020819055506000915050610344565b5b60019150505b92915050565b80600080549050811080156103835750806000828154811061036f5761036e611467565b5b906000526020600020906007020160000154145b6103c2576040517f08c379a00000000000000000000000000000000000000000000000000000000081526004016103b9906114f3565b60405180910390fd5b600082815481106103d6576103d5611467565b5b906000526020600020906007020160030160009054906101000a900473ffffffffffffffffffffffffffffffffffffffff166000838154811061041c5761041b611467565b5b90600052602060002090600702016001015460008290503073ffffffffffffffffffffffffffffffffffffffff168173ffffffffffffffffffffffffffffffffffffffff1663081812fc846040518263ffffffff1660e01b815260040161048391906113b9565b60206040518083038186803b15801561049b57600080fd5b505afa1580156104af573d6000803e3d6000fd5b505050506040513d601f19601f820116820180604052508101906104d39190611528565b73ffffffffffffffffffffffffffffffffffffffff16146104f357600080fd5b6000858154811061050757610506611467565b5b90600052602060002090600702016005015442101561055b576040517f08c379a0000000000000000000000000000000000000000000000000000000008152600401610552906115a1565b60405180910390fd5b6000858154811061056f5761056e611467565b5b906000526020600020906007020160060160009054906101000a900460ff16156105ce576040517f08c379a00000000000000000000000000000000000000000000000000000000081526004016105c590611633565b60405180910390fd5b6001600086815481106105e4576105e3611467565b5b906000526020600020906007020160060160006101000a81548160ff021916908315150217905550600085815481106106205761061f611467565b5b906000526020600020906007020160030160009054906101000a900473ffffffffffffffffffffffffffffffffffffffff1673ffffffffffffffffffffffffffffffffffffffff166342842e0e6000878154811061068157610680611467565b5b906000526020600020906007020160040160009054906101000a900473ffffffffffffffffffffffffffffffffffffffff166002600089815260200190815260200160002060009054906101000a900473ffffffffffffffffffffffffffffffffffffffff16600089815481106106fb576106fa611467565b5b9060005260206000209060070201600101546040518463ffffffff1660e01b815260040161072b939291906116b2565b600060405180830381600087803b15801561074557600080fd5b505af1158015610759573d6000803e3d6000fd5b505050506000858154811061077157610770611467565b5b906000526020600020906007020160040160009054906101000a900473ffffffffffffffffffffffffffffffffffffffff1673ffffffffffffffffffffffffffffffffffffffff166108fc60036000888152602001908152602001600020549081150290604051600060405180830381858888f193505050501580156107fb573d6000803e3d6000fd5b507fd2aa34a4fdbbc6dff6a3e56f46e0f3ae2a31d7785ff3487aa5c95c642acea501856002600088815260200190815260200160002060009054906101000a900473ffffffffffffffffffffffffffffffffffffffff166003600089815260200190815260200160002054604051610875939291906116e9565b60405180910390a15050505050565b60026020528060005260406000206000915054906101000a900473ffffffffffffffffffffffffffffffffffffffff1681565b600081815481106108c757600080fd5b90600052602060002090600702016000915090508060000154908060010154908060020154908060030160009054906101000a900473ffffffffffffffffffffffffffffffffffffffff16908060040160009054906101000a900473ffffffffffffffffffffffffffffffffffffffff16908060050154908060060160009054906101000a900460ff16905087565b816000805490508110801561098f5750806000828154811061097b5761097a611467565b5b906000526020600020906007020160000154145b6109ce576040517f08c379a00000000000000000000000000000000000000000000000000000000081526004016109c5906114f3565b60405180910390fd5b600083815481106109e2576109e1611467565b5b906000526020600020906007020160030160009054906101000a900473ffffffffffffffffffffffffffffffffffffffff1660008481548110610a2857610a27611467565b5b90600052602060002090600702016001015460008290503373ffffffffffffffffffffffffffffffffffffffff168173ffffffffffffffffffffffffffffffffffffffff16636352211e846040518263ffffffff1660e01b8152600401610a8f91906113b9565b60206040518083038186803b158015610aa757600080fd5b505afa158015610abb573d6000803e3d6000fd5b505050506040513d601f19601f82011682018060405250810190610adf9190611528565b73ffffffffffffffffffffffffffffffffffffffff161415610b36576040517f08c379a0000000000000000000000000000000000000000000000000000000008152600401610b2d9061176c565b60405180910390fd5b60008681548110610b4a57610b49611467565b5b906000526020600020906007020160050154421115610b9e576040517f08c379a0000000000000000000000000000000000000000000000000000000008152600401610b95906117d8565b60405180910390fd5b60036000878152602001908152602001600020548511610bf3576040517f08c379a0000000000000000000000000000000000000000000000000000000008152600401610bea90611844565b60405180910390fd5b6000856001600089815260200190815260200160002060003373ffffffffffffffffffffffffffffffffffffffff1673ffffffffffffffffffffffffffffffffffffffff1681526020019081526020016000206000828254610c559190611893565b925050819055905060036000888152602001908152602001600020548111610cb2576040517f08c379a0000000000000000000000000000000000000000000000000000000008152600401610ca990611935565b60405180910390fd5b806001600089815260200190815260200160002060003373ffffffffffffffffffffffffffffffffffffffff1673ffffffffffffffffffffffffffffffffffffffff16815260200190815260200160002081905550806003600089815260200190815260200160002081905550336002600089815260200190815260200160002060006101000a81548173ffffffffffffffffffffffffffffffffffffffff021916908373ffffffffffffffffffffffffffffffffffffffff1602179055508560036000898152602001908152602001600020819055507fda0a18da71d8ebd145966339a728fc0d8ccc07c22870d561890d823c515dda6b873388604051610dbc939291906116e9565b60405180910390a150505050505050565b60036020528060005260406000206000915090505481565b6000838560008290503373ffffffffffffffffffffffffffffffffffffffff168173ffffffffffffffffffffffffffffffffffffffff16636352211e846040518263ffffffff1660e01b8152600401610e3e91906113b9565b60206040518083038186803b158015610e5657600080fd5b505afa158015610e6a573d6000803e3d6000fd5b505050506040513d601f19601f82011682018060405250810190610e8e9190611528565b73ffffffffffffffffffffffffffffffffffffffff1614610eae57600080fd5b868860008290503073ffffffffffffffffffffffffffffffffffffffff168173ffffffffffffffffffffffffffffffffffffffff1663081812fc846040518263ffffffff1660e01b8152600401610f0591906113b9565b60206040518083038186803b158015610f1d57600080fd5b505afa158015610f31573d6000803e3d6000fd5b505050506040513d601f19601f82011682018060405250810190610f559190611528565b73ffffffffffffffffffffffffffffffffffffffff1614610f7557600080fd5b60008080549050905060006040518060e001604052808381526020018e81526020018c81526020018d73ffffffffffffffffffffffffffffffffffffffff1681526020013373ffffffffffffffffffffffffffffffffffffffff1681526020018b42610fe19190611893565b815260200160001515815250908060018154018082558091505060019003906000526020600020906007020160009091909190915060008201518160000155602082015181600101556040820151816002015560608201518160030160006101000a81548173ffffffffffffffffffffffffffffffffffffffff021916908373ffffffffffffffffffffffffffffffffffffffff16021790555060808201518160040160006101000a81548173ffffffffffffffffffffffffffffffffffffffff021916908373ffffffffffffffffffffffffffffffffffffffff16021790555060a0820151816005015560c08201518160060160006101000a81548160ff0219169083151502179055505050806000828154811061110357611102611467565b5b9060005260206000209060070201600001541461112357611122611955565b5b7fc01e7da6ec06ecf5e1b887799549c755425a022ab59da72fa2d8c6255c10bc85818d8d8d8d60405161115a959493929190611984565b60405180910390a180975050505050505050949350505050565b600080fd5b6000819050919050565b61118c81611179565b811461119757600080fd5b50565b6000813590506111a981611183565b92915050565b600073ffffffffffffffffffffffffffffffffffffffff82169050919050565b60006111da826111af565b9050919050565b6111ea816111cf565b81146111f557600080fd5b50565b600081359050611207816111e1565b92915050565b6000806040838503121561122457611223611174565b5b60006112328582860161119a565b9250506020611243858286016111f8565b9150509250929050565b60008115159050919050565b6112628161124d565b82525050565b600060208201905061127d6000830184611259565b92915050565b60006020828403121561129957611298611174565b5b60006112a78482850161119a565b91505092915050565b60006112bb826111af565b9050919050565b6112cb816112b0565b82525050565b60006020820190506112e660008301846112c2565b92915050565b6112f581611179565b82525050565b611304816111cf565b82525050565b600060e08201905061131f600083018a6112ec565b61132c60208301896112ec565b61133960408301886112ec565b61134660608301876112c2565b61135360808301866112fb565b61136060a08301856112ec565b61136d60c0830184611259565b98975050505050505050565b600080604083850312156113905761138f611174565b5b600061139e8582860161119a565b92505060206113af8582860161119a565b9150509250929050565b60006020820190506113ce60008301846112ec565b92915050565b6113dd816112b0565b81146113e857600080fd5b50565b6000813590506113fa816113d4565b92915050565b6000806000806080858703121561141a57611419611174565b5b60006114288782880161119a565b9450506020611439878288016113eb565b935050604061144a8782880161119a565b925050606061145b8782880161119a565b91505092959194509250565b7f4e487b7100000000000000000000000000000000000000000000000000000000600052603260045260246000fd5b600082825260208201905092915050565b7f436f756c64206e6f742066696e64204974656d00000000000000000000000000600082015250565b60006114dd601383611496565b91506114e8826114a7565b602082019050919050565b6000602082019050818103600083015261150c816114d0565b9050919050565b600081519050611522816113d4565b92915050565b60006020828403121561153e5761153d611174565b5b600061154c84828501611513565b91505092915050565b7f41756374696f6e206e6f742079657420656e6465642e00000000000000000000600082015250565b600061158b601683611496565b915061159682611555565b602082019050919050565b600060208201905081810360008301526115ba8161157e565b9050919050565b7f61756374696f6e456e642068617320616c7265616479206265656e2063616c6c60008201527f65642e0000000000000000000000000000000000000000000000000000000000602082015250565b600061161d602383611496565b9150611628826115c1565b604082019050919050565b6000602082019050818103600083015261164c81611610565b9050919050565b6000819050919050565b600061167861167361166e846111af565b611653565b6111af565b9050919050565b600061168a8261165d565b9050919050565b600061169c8261167f565b9050919050565b6116ac81611691565b82525050565b60006060820190506116c760008301866116a3565b6116d460208301856112c2565b6116e160408301846112ec565b949350505050565b60006060820190506116fe60008301866112ec565b61170b60208301856112c2565b61171860408301846112ec565b949350505050565b7f4f776e65722063616e206e6f7420626964000000000000000000000000000000600082015250565b6000611756601183611496565b915061176182611720565b602082019050919050565b6000602082019050818103600083015261178581611749565b9050919050565b7f41756374696f6e20616c726561647920656e6465642e00000000000000000000600082015250565b60006117c2601683611496565b91506117cd8261178c565b602082019050919050565b600060208201905081810360008301526117f1816117b5565b9050919050565b7f546865726520616c7265616479206973206120686967686572206269642e0000600082015250565b600061182e601e83611496565b9150611839826117f8565b602082019050919050565b6000602082019050818103600083015261185d81611821565b9050919050565b7f4e487b7100000000000000000000000000000000000000000000000000000000600052601160045260246000fd5b600061189e82611179565b91506118a983611179565b9250827fffffffffffffffffffffffffffffffffffffffffffffffffffffffffffffffff038211156118de576118dd611864565b5b828201905092915050565b7f6269642073686f756c6420626520686967686572000000000000000000000000600082015250565b600061191f601483611496565b915061192a826118e9565b602082019050919050565b6000602082019050818103600083015261194e81611912565b9050919050565b7f4e487b7100000000000000000000000000000000000000000000000000000000600052600160045260246000fd5b600060a08201905061199960008301886112ec565b6119a660208301876112ec565b6119b360408301866112c2565b6119c060608301856112ec565b6119cd60808301846112ec565b969550505050505056fea2646970667358221220d3518c2a63aa3caaff0ada904ef980b994faa285a2a723cb3df194066934c65d64736f6c63430008090033",
  "immutableReferences": {},
  "source": "//Contract based on https://docs.openzeppelin.com/contracts/3.x/erc721\r\n// SPDX-License-Identifier: MIT\r\npragma solidity ^0.8.0;\r\n\r\nimport \"../node_modules/@openzeppelin/contracts/token/ERC721/IERC721.sol\";\r\n\r\ncontract MyAuction {\r\n    \r\n    struct AuctionItem{\r\n        uint256 id;\r\n        uint256 tokenId;\r\n        uint256 startPrice;\r\n        address tokenAddress;\r\n        address payable owner;\r\n        uint expirationTime;\r\n        bool ended;\r\n    }\r\n    \r\n    AuctionItem[] public auctions;\r\n    \r\n    mapping(uint256 => mapping(address => uint256)) bids;\r\n    \r\n    modifier notOwner(address tokenAddress, uint256 tokenId){\r\n        IERC721 tokenContract = IERC721(tokenAddress);\r\n        require(tokenContract.ownerOf(tokenId) != msg.sender, \"Owner can not bid\");\r\n        _;\r\n    }\r\n    \r\n    modifier HasTransferApproval(address tokenAddress, uint256 tokenId){\r\n        IERC721 tokenContract = IERC721(tokenAddress);\r\n        require(tokenContract.getApproved(tokenId) == address(this));\r\n        _;\r\n    }\r\n    \r\n     modifier OnlyItemOwner(address tokenAddress, uint256 tokenId){\r\n        IERC721 tokenContract = IERC721(tokenAddress);\r\n        require(tokenContract.ownerOf(tokenId) == msg.sender);\r\n        _;\r\n    }\r\n    \r\n    modifier ItemExists(uint256 id){\r\n        require(id < auctions.length && auctions[id].id == id, \"Could not find Item\");\r\n        _;\r\n    }\r\n    \r\n    mapping(uint => address) public highestBidder;\r\n    mapping(uint => uint) public highestBid;\r\n    // address public highestBidder;\r\n    // uint public highestBid;\r\n    \r\n    event AuctionCreated(uint256 id, uint256 tokenId, address tokenAddress, uint256 price, uint endTime);\r\n    event HighestBidIncreased(uint id, address bidder, uint amount);\r\n    event AuctionEnded(uint id, address winner, uint amount);\r\n    \r\n    function placeBid(uint id, uint price) public payable ItemExists(id) notOwner(auctions[id].tokenAddress, auctions[id].tokenId) {\r\n        \r\n         require(block.timestamp <= auctions[id].expirationTime,  \"Auction already ended.\");\r\n         require(price> highestBid[id], \"There already is a higher bid.\");\r\n         \r\n        //  uint currentBid = bids[id][msg.sender].add(msg.value);\r\n         \r\n        //  if (highestBid[id] != 0) {\r\n        //     bids[id][msg.sender] += price;\r\n        // }\r\n        \r\n         uint currentBid = bids[id][msg.sender] += price;\r\n        // uint currentBid = bids[id][msg.sender].add(price);\r\n        require(currentBid > highestBid[id], \"bid should be higher\");\r\n        // set the currentBid links with msg.sender\r\n        bids[id][msg.sender] = currentBid;\r\n        // update the highest price\r\n        highestBid[id] = currentBid;\r\n        highestBidder[id] = msg.sender;\r\n        \r\n        highestBid[id] = price;\r\n        emit HighestBidIncreased(id, msg.sender, price);\r\n    \r\n    }\r\n     \r\n    \r\n    function AuctionAdded(uint256 tokenId, address tokenAddress, uint price, uint time) OnlyItemOwner(tokenAddress, tokenId) HasTransferApproval(tokenAddress, tokenId) external returns (uint256){\r\n        // require(bids[tokenAddress][tokenId] == 0);\r\n    \r\n        uint256 newItemId = auctions.length;\r\n        auctions.push(AuctionItem(newItemId, tokenId, price, tokenAddress, payable (msg.sender), block.timestamp + time, false));\r\n        // bids[newItemId][msg.sender] = 0;    \r\n        \r\n        assert(auctions[newItemId].id == newItemId);\r\n        emit AuctionCreated(newItemId, tokenId, tokenAddress, price, time);\r\n        return newItemId;\r\n        \r\n    }\r\n    \r\n    function withdraw(uint id, address payable recipient) public returns (bool) {\r\n        uint amount = bids[id][recipient];\r\n        if (amount > 0) {\r\n            \r\n            bids[id][recipient] = 0;\r\n\r\n            if (!recipient.send(amount)) {\r\n                // No need to call throw here, just reset the amount owing\r\n                bids[id][msg.sender] = amount;\r\n                return false;\r\n            }\r\n        }\r\n        return true;\r\n    }\r\n    \r\n    function auctionEnd(uint id) ItemExists(id) HasTransferApproval(auctions[id].tokenAddress, auctions[id].tokenId) public {\r\n        // 1. Conditions\r\n        require(block.timestamp >=  auctions[id].expirationTime, \"Auction not yet ended.\");\r\n        require(!auctions[id].ended, \"auctionEnd has already been called.\");\r\n\r\n        // 2. Effects\r\n        auctions[id].ended = true;\r\n\r\n        // 3. Interaction\r\n        IERC721(auctions[id].tokenAddress).safeTransferFrom(auctions[id].owner, highestBidder[id], auctions[id].tokenId);\r\n        auctions[id].owner.transfer(highestBid[id]);\r\n        \r\n        emit AuctionEnded(id, highestBidder[id], highestBid[id]);\r\n    }\r\n}",
  "sourcePath": "C:/Users/J.C/Documents/contracts/contracts/Auctions.sol",
  "compiler": {
    "name": "solc",
    "version": "0.8.9+commit.e5eed63a.Emscripten.clang"
  },
  "schemaVersion": "3.4.1",
  "updatedAt": "2021-10-25T17:42:05.324Z",
  "devdoc": {
    "kind": "dev",
    "methods": {},
    "version": 1
  },
  "userdoc": {
    "kind": "user",
    "methods": {},
    "version": 1
  }
}