{
  "contractName": "myNft",
  "abi": [
    {
      "inputs": [
        {
          "internalType": "address",
          "name": "marketplaceAddress",
          "type": "address"
        }
      ],
      "stateMutability": "nonpayable",
      "type": "constructor"
    },
    {
      "anonymous": false,
      "inputs": [
        {
          "indexed": true,
          "internalType": "address",
          "name": "owner",
          "type": "address"
        },
        {
          "indexed": true,
          "internalType": "address",
          "name": "approved",
          "type": "address"
        },
        {
          "indexed": true,
          "internalType": "uint256",
          "name": "tokenId",
          "type": "uint256"
        }
      ],
      "name": "Approval",
      "type": "event"
    },
    {
      "anonymous": false,
      "inputs": [
        {
          "indexed": true,
          "internalType": "address",
          "name": "owner",
          "type": "address"
        },
        {
          "indexed": true,
          "internalType": "address",
          "name": "operator",
          "type": "address"
        },
        {
          "indexed": false,
          "internalType": "bool",
          "name": "approved",
          "type": "bool"
        }
      ],
      "name": "ApprovalForAll",
      "type": "event"
    },
    {
      "anonymous": false,
      "inputs": [
        {
          "indexed": true,
          "internalType": "address",
          "name": "from",
          "type": "address"
        },
        {
          "indexed": true,
          "internalType": "address",
          "name": "to",
          "type": "address"
        },
        {
          "indexed": true,
          "internalType": "uint256",
          "name": "tokenId",
          "type": "uint256"
        }
      ],
      "name": "Transfer",
      "type": "event"
    },
    {
      "inputs": [
        {
          "internalType": "uint256",
          "name": "",
          "type": "uint256"
        }
      ],
      "name": "Items",
      "outputs": [
        {
          "internalType": "uint256",
          "name": "id",
          "type": "uint256"
        },
        {
          "internalType": "address",
          "name": "creater",
          "type": "address"
        },
        {
          "internalType": "string",
          "name": "uri",
          "type": "string"
        }
      ],
      "stateMutability": "view",
      "type": "function"
    },
    {
      "inputs": [
        {
          "internalType": "address",
          "name": "to",
          "type": "address"
        },
        {
          "internalType": "uint256",
          "name": "tokenId",
          "type": "uint256"
        }
      ],
      "name": "approve",
      "outputs": [],
      "stateMutability": "nonpayable",
      "type": "function"
    },
    {
      "inputs": [
        {
          "internalType": "address",
          "name": "owner",
          "type": "address"
        }
      ],
      "name": "balanceOf",
      "outputs": [
        {
          "internalType": "uint256",
          "name": "",
          "type": "uint256"
        }
      ],
      "stateMutability": "view",
      "type": "function"
    },
    {
      "inputs": [
        {
          "internalType": "uint256",
          "name": "tokenId",
          "type": "uint256"
        }
      ],
      "name": "getApproved",
      "outputs": [
        {
          "internalType": "address",
          "name": "",
          "type": "address"
        }
      ],
      "stateMutability": "view",
      "type": "function"
    },
    {
      "inputs": [
        {
          "internalType": "address",
          "name": "owner",
          "type": "address"
        },
        {
          "internalType": "address",
          "name": "operator",
          "type": "address"
        }
      ],
      "name": "isApprovedForAll",
      "outputs": [
        {
          "internalType": "bool",
          "name": "",
          "type": "bool"
        }
      ],
      "stateMutability": "view",
      "type": "function"
    },
    {
      "inputs": [],
      "name": "name",
      "outputs": [
        {
          "internalType": "string",
          "name": "",
          "type": "string"
        }
      ],
      "stateMutability": "view",
      "type": "function"
    },
    {
      "inputs": [
        {
          "internalType": "uint256",
          "name": "tokenId",
          "type": "uint256"
        }
      ],
      "name": "ownerOf",
      "outputs": [
        {
          "internalType": "address",
          "name": "",
          "type": "address"
        }
      ],
      "stateMutability": "view",
      "type": "function"
    },
    {
      "inputs": [
        {
          "internalType": "address",
          "name": "from",
          "type": "address"
        },
        {
          "internalType": "address",
          "name": "to",
          "type": "address"
        },
        {
          "internalType": "uint256",
          "name": "tokenId",
          "type": "uint256"
        }
      ],
      "name": "safeTransferFrom",
      "outputs": [],
      "stateMutability": "nonpayable",
      "type": "function"
    },
    {
      "inputs": [
        {
          "internalType": "address",
          "name": "from",
          "type": "address"
        },
        {
          "internalType": "address",
          "name": "to",
          "type": "address"
        },
        {
          "internalType": "uint256",
          "name": "tokenId",
          "type": "uint256"
        },
        {
          "internalType": "bytes",
          "name": "_data",
          "type": "bytes"
        }
      ],
      "name": "safeTransferFrom",
      "outputs": [],
      "stateMutability": "nonpayable",
      "type": "function"
    },
    {
      "inputs": [
        {
          "internalType": "address",
          "name": "operator",
          "type": "address"
        },
        {
          "internalType": "bool",
          "name": "approved",
          "type": "bool"
        }
      ],
      "name": "setApprovalForAll",
      "outputs": [],
      "stateMutability": "nonpayable",
      "type": "function"
    },
    {
      "inputs": [
        {
          "internalType": "bytes4",
          "name": "interfaceId",
          "type": "bytes4"
        }
      ],
      "name": "supportsInterface",
      "outputs": [
        {
          "internalType": "bool",
          "name": "",
          "type": "bool"
        }
      ],
      "stateMutability": "view",
      "type": "function"
    },
    {
      "inputs": [],
      "name": "symbol",
      "outputs": [
        {
          "internalType": "string",
          "name": "",
          "type": "string"
        }
      ],
      "stateMutability": "view",
      "type": "function"
    },
    {
      "inputs": [
        {
          "internalType": "address",
          "name": "from",
          "type": "address"
        },
        {
          "internalType": "address",
          "name": "to",
          "type": "address"
        },
        {
          "internalType": "uint256",
          "name": "tokenId",
          "type": "uint256"
        }
      ],
      "name": "transferFrom",
      "outputs": [],
      "stateMutability": "nonpayable",
      "type": "function"
    },
    {
      "inputs": [
        {
          "internalType": "address",
          "name": "recipient",
          "type": "address"
        },
        {
          "internalType": "string",
          "name": "uri",
          "type": "string"
        }
      ],
      "name": "mintNFT",
      "outputs": [
        {
          "internalType": "uint256",
          "name": "",
          "type": "uint256"
        }
      ],
      "stateMutability": "nonpayable",
      "type": "function"
    },
    {
      "inputs": [
        {
          "internalType": "uint256",
          "name": "tokenId",
          "type": "uint256"
        }
      ],
      "name": "tokenURI",
      "outputs": [
        {
          "internalType": "string",
          "name": "",
          "type": "string"
        }
      ],
      "stateMutability": "view",
      "type": "function"
    }
  ],
  "bytecode": "0x60806040523480156200001157600080fd5b5060405162002b2638038062002b26833981810160405281019062000037919062000239565b6040518060400160405280601081526020017f4d6563686164656d7920546f6b656e73000000000000000000000000000000008152506040518060400160405280600981526020017f4d4543484144454d5900000000000000000000000000000000000000000000008152508160009080519060200190620000bb9291906200011f565b508060019080519060200190620000d49291906200011f565b50505080600760006101000a81548173ffffffffffffffffffffffffffffffffffffffff021916908373ffffffffffffffffffffffffffffffffffffffff16021790555050620002d0565b8280546200012d906200029a565b90600052602060002090601f0160209004810192826200015157600085556200019d565b82601f106200016c57805160ff19168380011785556200019d565b828001600101855582156200019d579182015b828111156200019c5782518255916020019190600101906200017f565b5b509050620001ac9190620001b0565b5090565b5b80821115620001cb576000816000905550600101620001b1565b5090565b600080fd5b600073ffffffffffffffffffffffffffffffffffffffff82169050919050565b60006200020182620001d4565b9050919050565b6200021381620001f4565b81146200021f57600080fd5b50565b600081519050620002338162000208565b92915050565b600060208284031215620002525762000251620001cf565b5b6000620002628482850162000222565b91505092915050565b7f4e487b7100000000000000000000000000000000000000000000000000000000600052602260045260246000fd5b60006002820490506001821680620002b357607f821691505b60208210811415620002ca57620002c96200026b565b5b50919050565b61284680620002e06000396000f3fe608060405234801561001057600080fd5b50600436106100f55760003560e01c80636352211e11610097578063b88d4fde11610066578063b88d4fde14610298578063c87b56dd146102b4578063e985e9c5146102e4578063eacabe1414610314576100f5565b80636352211e146101fe57806370a082311461022e57806395d89b411461025e578063a22cb4651461027c576100f5565b8063095ea7b3116100d3578063095ea7b31461017857806317b47cc41461019457806323b872dd146101c657806342842e0e146101e2576100f5565b806301ffc9a7146100fa57806306fdde031461012a578063081812fc14610148575b600080fd5b610114600480360381019061010f91906117f7565b610344565b604051610121919061183f565b60405180910390f35b610132610426565b60405161013f91906118f3565b60405180910390f35b610162600480360381019061015d919061194b565b6104b8565b60405161016f91906119b9565b60405180910390f35b610192600480360381019061018d9190611a00565b61053d565b005b6101ae60048036038101906101a9919061194b565b610655565b6040516101bd93929190611a4f565b60405180910390f35b6101e060048036038101906101db9190611a8d565b610727565b005b6101fc60048036038101906101f79190611a8d565b610787565b005b6102186004803603810190610213919061194b565b6107a7565b60405161022591906119b9565b60405180910390f35b61024860048036038101906102439190611ae0565b610859565b6040516102559190611b0d565b60405180910390f35b610266610911565b60405161027391906118f3565b60405180910390f35b61029660048036038101906102919190611b54565b6109a3565b005b6102b260048036038101906102ad9190611cc9565b610b24565b005b6102ce60048036038101906102c9919061194b565b610b86565b6040516102db91906118f3565b60405180910390f35b6102fe60048036038101906102f99190611d4c565b610c76565b60405161030b919061183f565b60405180910390f35b61032e60048036038101906103299190611e2d565b610d0a565b60405161033b9190611b0d565b60405180910390f35b60007f80ac58cd000000000000000000000000000000000000000000000000000000007bffffffffffffffffffffffffffffffffffffffffffffffffffffffff1916827bffffffffffffffffffffffffffffffffffffffffffffffffffffffff1916148061040f57507f5b5e139f000000000000000000000000000000000000000000000000000000007bffffffffffffffffffffffffffffffffffffffffffffffffffffffff1916827bffffffffffffffffffffffffffffffffffffffffffffffffffffffff1916145b8061041f575061041e82610e1a565b5b9050919050565b60606000805461043590611eb8565b80601f016020809104026020016040519081016040528092919081815260200182805461046190611eb8565b80156104ae5780601f10610483576101008083540402835291602001916104ae565b820191906000526020600020905b81548152906001019060200180831161049157829003601f168201915b5050505050905090565b60006104c382610e84565b610502576040517f08c379a00000000000000000000000000000000000000000000000000000000081526004016104f990611f5c565b60405180910390fd5b6004600083815260200190815260200160002060009054906101000a900473ffffffffffffffffffffffffffffffffffffffff169050919050565b6000610548826107a7565b90508073ffffffffffffffffffffffffffffffffffffffff168373ffffffffffffffffffffffffffffffffffffffff1614156105b9576040517f08c379a00000000000000000000000000000000000000000000000000000000081526004016105b090611fee565b60405180910390fd5b8073ffffffffffffffffffffffffffffffffffffffff166105d8610ef0565b73ffffffffffffffffffffffffffffffffffffffff161480610607575061060681610601610ef0565b610c76565b5b610646576040517f08c379a000000000000000000000000000000000000000000000000000000000815260040161063d90612080565b60405180910390fd5b6106508383610ef8565b505050565b60086020528060005260406000206000915090508060000154908060010160009054906101000a900473ffffffffffffffffffffffffffffffffffffffff16908060020180546106a490611eb8565b80601f01602080910402602001604051908101604052809291908181526020018280546106d090611eb8565b801561071d5780601f106106f25761010080835404028352916020019161071d565b820191906000526020600020905b81548152906001019060200180831161070057829003601f168201915b5050505050905083565b610738610732610ef0565b82610fb1565b610777576040517f08c379a000000000000000000000000000000000000000000000000000000000815260040161076e90612112565b60405180910390fd5b61078283838361108f565b505050565b6107a283838360405180602001604052806000815250610b24565b505050565b6000806002600084815260200190815260200160002060009054906101000a900473ffffffffffffffffffffffffffffffffffffffff169050600073ffffffffffffffffffffffffffffffffffffffff168173ffffffffffffffffffffffffffffffffffffffff161415610850576040517f08c379a0000000000000000000000000000000000000000000000000000000008152600401610847906121a4565b60405180910390fd5b80915050919050565b60008073ffffffffffffffffffffffffffffffffffffffff168273ffffffffffffffffffffffffffffffffffffffff1614156108ca576040517f08c379a00000000000000000000000000000000000000000000000000000000081526004016108c190612236565b60405180910390fd5b600360008373ffffffffffffffffffffffffffffffffffffffff1673ffffffffffffffffffffffffffffffffffffffff168152602001908152602001600020549050919050565b60606001805461092090611eb8565b80601f016020809104026020016040519081016040528092919081815260200182805461094c90611eb8565b80156109995780601f1061096e57610100808354040283529160200191610999565b820191906000526020600020905b81548152906001019060200180831161097c57829003601f168201915b5050505050905090565b6109ab610ef0565b73ffffffffffffffffffffffffffffffffffffffff168273ffffffffffffffffffffffffffffffffffffffff161415610a19576040517f08c379a0000000000000000000000000000000000000000000000000000000008152600401610a10906122a2565b60405180910390fd5b8060056000610a26610ef0565b73ffffffffffffffffffffffffffffffffffffffff1673ffffffffffffffffffffffffffffffffffffffff16815260200190815260200160002060008473ffffffffffffffffffffffffffffffffffffffff1673ffffffffffffffffffffffffffffffffffffffff16815260200190815260200160002060006101000a81548160ff0219169083151502179055508173ffffffffffffffffffffffffffffffffffffffff16610ad3610ef0565b73ffffffffffffffffffffffffffffffffffffffff167f17307eab39ab6107e8899845ad3d59bd9653f200f220920489ca2b5937696c3183604051610b18919061183f565b60405180910390a35050565b610b35610b2f610ef0565b83610fb1565b610b74576040517f08c379a0000000000000000000000000000000000000000000000000000000008152600401610b6b90612112565b60405180910390fd5b610b80848484846112eb565b50505050565b6060610b9182610e84565b610bd0576040517f08c379a0000000000000000000000000000000000000000000000000000000008152600401610bc790612334565b60405180910390fd5b600860008381526020019081526020016000206002018054610bf190611eb8565b80601f0160208091040260200160405190810160405280929190818152602001828054610c1d90611eb8565b8015610c6a5780601f10610c3f57610100808354040283529160200191610c6a565b820191906000526020600020905b815481529060010190602001808311610c4d57829003601f168201915b50505050509050919050565b6000600560008473ffffffffffffffffffffffffffffffffffffffff1673ffffffffffffffffffffffffffffffffffffffff16815260200190815260200160002060008373ffffffffffffffffffffffffffffffffffffffff1673ffffffffffffffffffffffffffffffffffffffff16815260200190815260200160002060009054906101000a900460ff16905092915050565b6000610d166006611347565b6000610d22600661135d565b9050610d2e848261136b565b60405180606001604052808281526020018573ffffffffffffffffffffffffffffffffffffffff16815260200184815250600860008381526020019081526020016000206000820151816000015560208201518160010160006101000a81548173ffffffffffffffffffffffffffffffffffffffff021916908373ffffffffffffffffffffffffffffffffffffffff1602179055506040820151816002019080519060200190610ddf9291906116e8565b50905050610e10600760009054906101000a900473ffffffffffffffffffffffffffffffffffffffff1660016109a3565b8091505092915050565b60007f01ffc9a7000000000000000000000000000000000000000000000000000000007bffffffffffffffffffffffffffffffffffffffffffffffffffffffff1916827bffffffffffffffffffffffffffffffffffffffffffffffffffffffff1916149050919050565b60008073ffffffffffffffffffffffffffffffffffffffff166002600084815260200190815260200160002060009054906101000a900473ffffffffffffffffffffffffffffffffffffffff1673ffffffffffffffffffffffffffffffffffffffff1614159050919050565b600033905090565b816004600083815260200190815260200160002060006101000a81548173ffffffffffffffffffffffffffffffffffffffff021916908373ffffffffffffffffffffffffffffffffffffffff160217905550808273ffffffffffffffffffffffffffffffffffffffff16610f6b836107a7565b73ffffffffffffffffffffffffffffffffffffffff167f8c5be1e5ebec7d5bd14f71427d1e84f3dd0314c0f7b2291e5b200ac8c7c3b92560405160405180910390a45050565b6000610fbc82610e84565b610ffb576040517f08c379a0000000000000000000000000000000000000000000000000000000008152600401610ff2906123c6565b60405180910390fd5b6000611006836107a7565b90508073ffffffffffffffffffffffffffffffffffffffff168473ffffffffffffffffffffffffffffffffffffffff16148061107557508373ffffffffffffffffffffffffffffffffffffffff1661105d846104b8565b73ffffffffffffffffffffffffffffffffffffffff16145b8061108657506110858185610c76565b5b91505092915050565b8273ffffffffffffffffffffffffffffffffffffffff166110af826107a7565b73ffffffffffffffffffffffffffffffffffffffff1614611105576040517f08c379a00000000000000000000000000000000000000000000000000000000081526004016110fc90612458565b60405180910390fd5b600073ffffffffffffffffffffffffffffffffffffffff168273ffffffffffffffffffffffffffffffffffffffff161415611175576040517f08c379a000000000000000000000000000000000000000000000000000000000815260040161116c906124ea565b60405180910390fd5b611180838383611539565b61118b600082610ef8565b6001600360008573ffffffffffffffffffffffffffffffffffffffff1673ffffffffffffffffffffffffffffffffffffffff16815260200190815260200160002060008282546111db9190612539565b925050819055506001600360008473ffffffffffffffffffffffffffffffffffffffff1673ffffffffffffffffffffffffffffffffffffffff1681526020019081526020016000206000828254611232919061256d565b92505081905550816002600083815260200190815260200160002060006101000a81548173ffffffffffffffffffffffffffffffffffffffff021916908373ffffffffffffffffffffffffffffffffffffffff160217905550808273ffffffffffffffffffffffffffffffffffffffff168473ffffffffffffffffffffffffffffffffffffffff167fddf252ad1be2c89b69c2b068fc378daa952ba7f163c4a11628f55a4df523b3ef60405160405180910390a4505050565b6112f684848461108f565b6113028484848461153e565b611341576040517f08c379a000000000000000000000000000000000000000000000000000000000815260040161133890612635565b60405180910390fd5b50505050565b6001816000016000828254019250508190555050565b600081600001549050919050565b600073ffffffffffffffffffffffffffffffffffffffff168273ffffffffffffffffffffffffffffffffffffffff1614156113db576040517f08c379a00000000000000000000000000000000000000000000000000000000081526004016113d2906126a1565b60405180910390fd5b6113e481610e84565b15611424576040517f08c379a000000000000000000000000000000000000000000000000000000000815260040161141b9061270d565b60405180910390fd5b61143060008383611539565b6001600360008473ffffffffffffffffffffffffffffffffffffffff1673ffffffffffffffffffffffffffffffffffffffff1681526020019081526020016000206000828254611480919061256d565b92505081905550816002600083815260200190815260200160002060006101000a81548173ffffffffffffffffffffffffffffffffffffffff021916908373ffffffffffffffffffffffffffffffffffffffff160217905550808273ffffffffffffffffffffffffffffffffffffffff16600073ffffffffffffffffffffffffffffffffffffffff167fddf252ad1be2c89b69c2b068fc378daa952ba7f163c4a11628f55a4df523b3ef60405160405180910390a45050565b505050565b600061155f8473ffffffffffffffffffffffffffffffffffffffff166116d5565b156116c8578373ffffffffffffffffffffffffffffffffffffffff1663150b7a02611588610ef0565b8786866040518563ffffffff1660e01b81526004016115aa9493929190612782565b602060405180830381600087803b1580156115c457600080fd5b505af19250505080156115f557506040513d601f19601f820116820180604052508101906115f291906127e3565b60015b611678573d8060008114611625576040519150601f19603f3d011682016040523d82523d6000602084013e61162a565b606091505b50600081511415611670576040517f08c379a000000000000000000000000000000000000000000000000000000000815260040161166790612635565b60405180910390fd5b805181602001fd5b63150b7a0260e01b7bffffffffffffffffffffffffffffffffffffffffffffffffffffffff1916817bffffffffffffffffffffffffffffffffffffffffffffffffffffffff1916149150506116cd565b600190505b949350505050565b600080823b905060008111915050919050565b8280546116f490611eb8565b90600052602060002090601f016020900481019282611716576000855561175d565b82601f1061172f57805160ff191683800117855561175d565b8280016001018555821561175d579182015b8281111561175c578251825591602001919060010190611741565b5b50905061176a919061176e565b5090565b5b8082111561178757600081600090555060010161176f565b5090565b6000604051905090565b600080fd5b600080fd5b60007fffffffff0000000000000000000000000000000000000000000000000000000082169050919050565b6117d48161179f565b81146117df57600080fd5b50565b6000813590506117f1816117cb565b92915050565b60006020828403121561180d5761180c611795565b5b600061181b848285016117e2565b91505092915050565b60008115159050919050565b61183981611824565b82525050565b60006020820190506118546000830184611830565b92915050565b600081519050919050565b600082825260208201905092915050565b60005b83811015611894578082015181840152602081019050611879565b838111156118a3576000848401525b50505050565b6000601f19601f8301169050919050565b60006118c58261185a565b6118cf8185611865565b93506118df818560208601611876565b6118e8816118a9565b840191505092915050565b6000602082019050818103600083015261190d81846118ba565b905092915050565b6000819050919050565b61192881611915565b811461193357600080fd5b50565b6000813590506119458161191f565b92915050565b60006020828403121561196157611960611795565b5b600061196f84828501611936565b91505092915050565b600073ffffffffffffffffffffffffffffffffffffffff82169050919050565b60006119a382611978565b9050919050565b6119b381611998565b82525050565b60006020820190506119ce60008301846119aa565b92915050565b6119dd81611998565b81146119e857600080fd5b50565b6000813590506119fa816119d4565b92915050565b60008060408385031215611a1757611a16611795565b5b6000611a25858286016119eb565b9250506020611a3685828601611936565b9150509250929050565b611a4981611915565b82525050565b6000606082019050611a646000830186611a40565b611a7160208301856119aa565b8181036040830152611a8381846118ba565b9050949350505050565b600080600060608486031215611aa657611aa5611795565b5b6000611ab4868287016119eb565b9350506020611ac5868287016119eb565b9250506040611ad686828701611936565b9150509250925092565b600060208284031215611af657611af5611795565b5b6000611b04848285016119eb565b91505092915050565b6000602082019050611b226000830184611a40565b92915050565b611b3181611824565b8114611b3c57600080fd5b50565b600081359050611b4e81611b28565b92915050565b60008060408385031215611b6b57611b6a611795565b5b6000611b79858286016119eb565b9250506020611b8a85828601611b3f565b9150509250929050565b600080fd5b600080fd5b7f4e487b7100000000000000000000000000000000000000000000000000000000600052604160045260246000fd5b611bd6826118a9565b810181811067ffffffffffffffff82111715611bf557611bf4611b9e565b5b80604052505050565b6000611c0861178b565b9050611c148282611bcd565b919050565b600067ffffffffffffffff821115611c3457611c33611b9e565b5b611c3d826118a9565b9050602081019050919050565b82818337600083830152505050565b6000611c6c611c6784611c19565b611bfe565b905082815260208101848484011115611c8857611c87611b99565b5b611c93848285611c4a565b509392505050565b600082601f830112611cb057611caf611b94565b5b8135611cc0848260208601611c59565b91505092915050565b60008060008060808587031215611ce357611ce2611795565b5b6000611cf1878288016119eb565b9450506020611d02878288016119eb565b9350506040611d1387828801611936565b925050606085013567ffffffffffffffff811115611d3457611d3361179a565b5b611d4087828801611c9b565b91505092959194509250565b60008060408385031215611d6357611d62611795565b5b6000611d71858286016119eb565b9250506020611d82858286016119eb565b9150509250929050565b600067ffffffffffffffff821115611da757611da6611b9e565b5b611db0826118a9565b9050602081019050919050565b6000611dd0611dcb84611d8c565b611bfe565b905082815260208101848484011115611dec57611deb611b99565b5b611df7848285611c4a565b509392505050565b600082601f830112611e1457611e13611b94565b5b8135611e24848260208601611dbd565b91505092915050565b60008060408385031215611e4457611e43611795565b5b6000611e52858286016119eb565b925050602083013567ffffffffffffffff811115611e7357611e7261179a565b5b611e7f85828601611dff565b9150509250929050565b7f4e487b7100000000000000000000000000000000000000000000000000000000600052602260045260246000fd5b60006002820490506001821680611ed057607f821691505b60208210811415611ee457611ee3611e89565b5b50919050565b7f4552433732313a20617070726f76656420717565727920666f72206e6f6e657860008201527f697374656e7420746f6b656e0000000000000000000000000000000000000000602082015250565b6000611f46602c83611865565b9150611f5182611eea565b604082019050919050565b60006020820190508181036000830152611f7581611f39565b9050919050565b7f4552433732313a20617070726f76616c20746f2063757272656e74206f776e6560008201527f7200000000000000000000000000000000000000000000000000000000000000602082015250565b6000611fd8602183611865565b9150611fe382611f7c565b604082019050919050565b6000602082019050818103600083015261200781611fcb565b9050919050565b7f4552433732313a20617070726f76652063616c6c6572206973206e6f74206f7760008201527f6e6572206e6f7220617070726f76656420666f7220616c6c0000000000000000602082015250565b600061206a603883611865565b91506120758261200e565b604082019050919050565b600060208201905081810360008301526120998161205d565b9050919050565b7f4552433732313a207472616e736665722063616c6c6572206973206e6f74206f60008201527f776e6572206e6f7220617070726f766564000000000000000000000000000000602082015250565b60006120fc603183611865565b9150612107826120a0565b604082019050919050565b6000602082019050818103600083015261212b816120ef565b9050919050565b7f4552433732313a206f776e657220717565727920666f72206e6f6e657869737460008201527f656e7420746f6b656e0000000000000000000000000000000000000000000000602082015250565b600061218e602983611865565b915061219982612132565b604082019050919050565b600060208201905081810360008301526121bd81612181565b9050919050565b7f4552433732313a2062616c616e636520717565727920666f7220746865207a6560008201527f726f206164647265737300000000000000000000000000000000000000000000602082015250565b6000612220602a83611865565b915061222b826121c4565b604082019050919050565b6000602082019050818103600083015261224f81612213565b9050919050565b7f4552433732313a20617070726f766520746f2063616c6c657200000000000000600082015250565b600061228c601983611865565b915061229782612256565b602082019050919050565b600060208201905081810360008301526122bb8161227f565b9050919050565b7f455253433732314d45544144415441203a2055524920717565727920666f722060008201527f6e6f6e6578697374656e7420746f6b656e200000000000000000000000000000602082015250565b600061231e603283611865565b9150612329826122c2565b604082019050919050565b6000602082019050818103600083015261234d81612311565b9050919050565b7f4552433732313a206f70657261746f7220717565727920666f72206e6f6e657860008201527f697374656e7420746f6b656e0000000000000000000000000000000000000000602082015250565b60006123b0602c83611865565b91506123bb82612354565b604082019050919050565b600060208201905081810360008301526123df816123a3565b9050919050565b7f4552433732313a207472616e73666572206f6620746f6b656e2074686174206960008201527f73206e6f74206f776e0000000000000000000000000000000000000000000000602082015250565b6000612442602983611865565b915061244d826123e6565b604082019050919050565b6000602082019050818103600083015261247181612435565b9050919050565b7f4552433732313a207472616e7366657220746f20746865207a65726f2061646460008201527f7265737300000000000000000000000000000000000000000000000000000000602082015250565b60006124d4602483611865565b91506124df82612478565b604082019050919050565b60006020820190508181036000830152612503816124c7565b9050919050565b7f4e487b7100000000000000000000000000000000000000000000000000000000600052601160045260246000fd5b600061254482611915565b915061254f83611915565b9250828210156125625761256161250a565b5b828203905092915050565b600061257882611915565b915061258383611915565b9250827fffffffffffffffffffffffffffffffffffffffffffffffffffffffffffffffff038211156125b8576125b761250a565b5b828201905092915050565b7f4552433732313a207472616e7366657220746f206e6f6e20455243373231526560008201527f63656976657220696d706c656d656e7465720000000000000000000000000000602082015250565b600061261f603283611865565b915061262a826125c3565b604082019050919050565b6000602082019050818103600083015261264e81612612565b9050919050565b7f4552433732313a206d696e7420746f20746865207a65726f2061646472657373600082015250565b600061268b602083611865565b915061269682612655565b602082019050919050565b600060208201905081810360008301526126ba8161267e565b9050919050565b7f4552433732313a20746f6b656e20616c7265616479206d696e74656400000000600082015250565b60006126f7601c83611865565b9150612702826126c1565b602082019050919050565b60006020820190508181036000830152612726816126ea565b9050919050565b600081519050919050565b600082825260208201905092915050565b60006127548261272d565b61275e8185612738565b935061276e818560208601611876565b612777816118a9565b840191505092915050565b600060808201905061279760008301876119aa565b6127a460208301866119aa565b6127b16040830185611a40565b81810360608301526127c38184612749565b905095945050505050565b6000815190506127dd816117cb565b92915050565b6000602082840312156127f9576127f8611795565b5b6000612807848285016127ce565b9150509291505056fea26469706673582212202466e8619d730cb44b0c8eeff53e5046efea5e63b424304be5ee35158dcb50cf64736f6c63430008090033",
  "immutableReferences": {},
  "source": "//Contract based on https://docs.openzeppelin.com/contracts/3.x/erc721\r\n// SPDX-License-Identifier: MIT\r\npragma solidity ^0.8.0;\r\n\r\nimport \"../node_modules/@openzeppelin/contracts/token/ERC721/ERC721.sol\";\r\nimport \"../node_modules/@openzeppelin/contracts/utils/Counters.sol\";\r\n\r\n\r\n\r\ncontract myNft is ERC721 {\r\n    using Counters for Counters.Counter;\r\n    Counters.Counter private _tokenIds;\r\n    address contractAddress;\r\n\r\n    constructor(address marketplaceAddress) ERC721(\"Mechademy Tokens\", \"MECHADEMY\"){\r\n        contractAddress = marketplaceAddress;\r\n    }\r\n    \r\n    struct Item{\r\n        uint256 id;\r\n        address creater;\r\n        string uri;\r\n    }\r\n    \r\n    mapping (uint256 => Item) public Items;\r\n    \r\n    function mintNFT(address recipient, string memory uri)\r\n        public\r\n        returns (uint256)\r\n    {\r\n        _tokenIds.increment();\r\n\r\n        uint256 newItemId = _tokenIds.current();\r\n        _mint(recipient, newItemId);\r\n       Items[newItemId] = Item(newItemId, recipient, uri);\r\n       setApprovalForAll(contractAddress, true);\r\n\r\n        return newItemId;\r\n    }\r\n    \r\n    function tokenURI(uint256 tokenId) public view override returns (string memory) {\r\n        require(_exists(tokenId), \"ERSC721METADATA : URI query for nonexistent token \");\r\n    \r\n        return Items[tokenId].uri;\r\n    }   \r\n}",
  "sourcePath": "C:/Users/J.C/Documents/contracts/contracts/NFT.sol",
  "compiler": {
    "name": "solc",
    "version": "0.8.9+commit.e5eed63a.Emscripten.clang"
  },
  "schemaVersion": "3.4.1",
  "updatedAt": "2021-10-25T17:42:05.645Z",
  "devdoc": {
    "kind": "dev",
    "methods": {
      "approve(address,uint256)": {
        "details": "See {IERC721-approve}."
      },
      "balanceOf(address)": {
        "details": "See {IERC721-balanceOf}."
      },
      "getApproved(uint256)": {
        "details": "See {IERC721-getApproved}."
      },
      "isApprovedForAll(address,address)": {
        "details": "See {IERC721-isApprovedForAll}."
      },
      "name()": {
        "details": "See {IERC721Metadata-name}."
      },
      "ownerOf(uint256)": {
        "details": "See {IERC721-ownerOf}."
      },
      "safeTransferFrom(address,address,uint256)": {
        "details": "See {IERC721-safeTransferFrom}."
      },
      "safeTransferFrom(address,address,uint256,bytes)": {
        "details": "See {IERC721-safeTransferFrom}."
      },
      "setApprovalForAll(address,bool)": {
        "details": "See {IERC721-setApprovalForAll}."
      },
      "supportsInterface(bytes4)": {
        "details": "See {IERC165-supportsInterface}."
      },
      "symbol()": {
        "details": "See {IERC721Metadata-symbol}."
      },
      "tokenURI(uint256)": {
        "details": "See {IERC721Metadata-tokenURI}."
      },
      "transferFrom(address,address,uint256)": {
        "details": "See {IERC721-transferFrom}."
      }
    },
    "version": 1
  },
  "userdoc": {
    "kind": "user",
    "methods": {},
    "version": 1
  }
}